:020000040800F2
:10000000000800209D0100084F250008031C00087F
:100010004D250008B1020008012E00080000000074
:10002000000000000000000000000000A5280008FB
:10003000C10200080000000051250008A7280008A0
:10004000B7010008B7010008B7010008B7010008B0
:10005000B7010008B7010008C3020008B701000893
:10006000B7010008B7010008B7010008B701000890
:10007000B7010008B5020008B7010008B701000881
:10008000B7010008B7010008B7010008B701000870
:10009000B7010008B7010008B7010008B701000860
:1000A000B7010008B7010008B7010008B701000850
:1000B000B7010008B7010008B7010008111C0008CB
:1000C000051C0008291C00081D1C0008B7010008B9
:1000D000B7010008DD2D0008E92D0008F52D000806
:1000E000C9020008B7010008B7010008B7010008FD
:1000F000B7010008B7010008B7010008B701000800
:10010000B7010008B7010008B7010008B7010008EF
:100110007D290008B7010008B7010008B7010008F1
:10012000B7010008B7010008B7010008B7010008CF
:10013000B7010008B7010008B7010008B7010008BF
:10014000B7010008B7010008B7010008B7010008AF
:10015000B7010008B7010008B7010008B70100089F
:10016000B7010008B7010008B7010008B70100088F
:10017000B7010008B7010008B7010008000000003F
:10018000B7010008B7010008DFF80CD000F07EF8D6
:1001900000480047412E000800080020064880471C
:1001A00006480047FEE7FEE7FEE7FEE7FEE7FEE75C
:1001B000FEE7FEE7FEE7FEE73929000889010008AF
:1001C0002DE9F05F0546002092469B46884606468C
:1001D000814640241BE0284641464746224600F01F
:1001E00044F853465A46C01A914110D31146184656
:1001F000224600F02BF82D1A67EB01084F462246E5
:100200000120002100F022F817EB00094E41201ECA
:10021000A4F10104DFDC484631462A46434600F09B
:1002200000B830BCBDE8C09FD2B201E000F8012B9D
:10023000491EFBD270470022F6E710B513460A4666
:1002400004461946FFF7F0FF204610BD202A04DBC4
:10025000203A00FA02F1002070479140C2F12003D9
:1002600020FA03F3194390407047202A04DB203A18
:1002700021FA02F00021704721FA02F3D040C2F1C6
:10028000200291400843194670470000064C074D74
:1002900006E0E06840F0010394E807009847103456
:1002A000AC42F6D3FFF774FFC42E0008E42E00081A
:1002B000FEE70000014800F033B80000B40300205E
:1002C0007047012000F0ECB84FF4806000F0E8B80F
:1002D000704710B590F825100024022903D004219E
:1002E000C16301241AE001680A6822F00E020A6064
:1002F00001680A6822F001020A6090F84410036C59
:1003000001F01C02012101FA02F25A6080F8251066
:10031000002180F82410816B01B18847204610BD70
:10032000F0B4016C0C6801680D6890F8442002F08C
:100330001C06042202FA06F3234211D06B070FD5E4
:100340000B689B0603D40B6823F004030B6090F842
:10035000441001F01C018A40016C4A60016B1DE0F1
:10036000022303FA06F727424FF0000C4FF0010278
:1003700018D0AF0716D50C68A40605D40C6824F075
:100380000A040C6080F8252090F8441001F01C014C
:100390008B40016C4B6080F824C0C16A00291AD0E0
:1003A000F0BC08470823B340234214D02B0712D5D2
:1003B0000B6823F00E030B6090F84410036C01F0FF
:1003C0001C0102FA01F15960C26380F8252080F80F
:1003D00024C0416BE2E7F0BC7047000070B568B123
:1003E0002B4C036814212B4AA34209D22A4C1C44EB
:1003F000B4FBF1F18900C0E910210BE0012070BDD0
:10040000234C64421C44B4FBF1F18900416420494F
:1004100008390164022180F825101C6847F6F07144
:100420008C43D0E902152943D0E9045635432943CA
:1004300085692943C5692943056A29432143196010
:100440008168B1F5804F19D0036C0F21934202D11E
:1004500052F8A83F02E00E4AA032136890F84440D8
:1004600004F01C04A1408B43136090F844304168B1
:1004700003F01C0399401368194311600021C16304
:10048000012280F8252080F82410084670BD000065
:100490000804024000000240F8FFFDBF7047000062
:1004A000044910B50A68024202D00860FFF7F6FF5F
:1004B00010BD0000140401402DE9F84FDFF898B199
:1004C00000234FF0010C4FF0030A4FF00F090BF11E
:1004D000040EB9E00CFA03F4224070D04D68022DEE
:1004E00001D0122D0ED1DD0800EB8508D8F8205080
:1004F0005E07F70E09FA07F6B5430E69BE402E43B4
:10050000C8F8206007685E0091F804800AFA06F5D2
:1005100008F00308AF4308FA06F848EA0708C0F8ED
:1005200000804F68012F05D0022F03D0112F01D07A
:10053000122F13D1D0F80880CF6828EA0508B740F9
:1005400047EA08078760D0F804800F7928EA040892
:10055000C7F300179F4047EA08074760D1F80480B7
:100560006FEA0807BF0706D1C76AA743C8F3C004EC
:100570009C403C43C462C468AC438D68B54025438D
:10058000C5604C68E4005ED5344C256E45F001052D
:100590002566246E23F0030504F001040094304C1A
:1005A0002E19B4689D072F0F09FA07F5AC43B0F177
:1005B000904F05D02B4DA84204D101251CE042E00C
:1005C000002519E0284DA84201D1022514E0274D4D
:1005D000A84201D103250FE0254DA84201D10425F1
:1005E0000AE0244DA84201D1052505E0224DA8428C
:1005F00001D1062500E00725BD402543B560DBF8A5
:1006000000405D464E689443F60300D514432C60C9
:10061000DEF8004075464E689443B60300D5144397
:100620002C600D4D08352C684E689443F60200D5B9
:1006300014432C60084D0C352C684E689443B60268
:1006400000D514432C605B1C0A6832FA03F57FF472
:1006500041AF00F013B80000000401400010024058
:10066000000001400004004800080048000C004859
:1006700000100048001400480018004818BCBDE8ED
:10068000E08F0AB1816170478162704701488068DC
:10069000704700000000002090F84120202A24D15B
:1006A00090F84020012A20D0012280F84020242206
:1006B00080F841200268136823F001031360026888
:1006C000136823F480531360026813680B431360AC
:1006D00001680A6842F001020A60202180F8411096
:1006E000002180F84010084670470220704790F8BB
:1006F0004120202A22D190F84020012A1ED0012238
:1007000080F84020242280F841200268136823F0FA
:10071000010313600268136823F4706343EA012144
:10072000116001680A6842F001020A60202180F825
:100730004110002180F840100846704702207047A1
:100740007047704730B403689A691968D243D4057A
:1007500009D4CC43240606D4446C44F00104446418
:100760004FF48074DC6153050AD4CB431B0607D4D5
:10077000436C43F00803436404684FF48063E3610F
:1007800092050AD4C943090607D4416C41F002011D
:10079000416402684FF40071D161416C11F00B0F9C
:1007A00002D030BC01F0DABA30BC704702689169FF
:1007B0001268436B002B00D0184770477047000049
:1007C00070B5040004D094F84100002510B106E093
:1007D000012070BD84F84050204600F04FF82420DE
:1007E00084F841002068016821F00101016060681F
:1007F000216820F0706008612068816821F4004160
:100800008160E0680128A06807D040F404402168B6
:100810008860E068022803D006E040F40040F6E774
:1008200021684FF40060486020684168114A114314
:1008300041602068C16821F40041C160D4E904012D
:100840000843A16940EA01202168C860D4E9070192
:100850000843216808602068016841F001010160D7
:100860006564202084F84100256384F8425000200C
:1008700070BD00000080000270470000F0B587B036
:10088000044614216846FFF7D6FC2F4F26682F4CEC
:1008900012210122032304252D48BE4226D1E66CF5
:1008A00046F00206E664E66C01AF06F00206059625
:1008B000C026009687E82E006946FFF7FDFDA06D73
:1008C00040F40010A065A06D002200F40010059017
:1008D00011461F2000F0D0F81F2000F0BFF80022C2
:1008E0001146202000F0C8F8202029E0194FBE4210
:1008F00028D1E66C46F00206E664E66C01AF06F02D
:10090000020605964FF44066009687E82E00694679
:10091000FFF7D2FDA06D40F48000A065A06D00221D
:1009200000F4800005901146212000F0A5F8212058
:1009300000F094F800221146222000F09DF82220B9
:1009400000F08CF807B0F0BD0054004000100240E9
:1009500000040048005800407047704770B504001C
:1009600011D021684CF6CC400860216845F2555002
:100970000860D4E9000141602168A0688860FFF741
:1009800085FE054609E0012070BD00BFFFF77EFE31
:10099000401B302801D9032070BD2068C0680028A2
:1009A000F4D120680269E1688A4201D0016102E065
:1009B0004AF6AA210160002070BD0000024881684B
:1009C00042681144816070470000002010B5002487
:1009D000032000F071F8002000F008F808B10124AD
:1009E00001E000F025F8204610BD000070B50E4E65
:1009F00005460024706898B14FF47A71B1FBF0F0AD
:100A00000A490968B1FBF0F000F036FF40B9102D3B
:100A100006D200222946501E00F02EF8356000E074
:100A20000124204670BD0000000000200C000020C2
:100A3000094808B5016E41F001010166016E01F03F
:100A400001010091816D41F080518165806D00F060
:100A50008050009008BD000000100240002809DB13
:100A600000F01F02012191404009800000F1E020C8
:100A7000C0F8001170470000F0B40E4B1B680C4624
:100A8000C3F30223C3F10705042D00D90425191D62
:100A9000072901D2002300E0DB1E012606FA05F13A
:100AA000491E214099409E40761E16403143F0BCBD
:100AB00002F0A7B90CED00E0064900F00702086853
:100AC0004FF6FF03184040EA0220034A1043086033
:100AD000704700000CED00E00000FA051649B0F583
:100AE000007F0868C0F3412009D0022805D00868BB
:100AF00020F4C06040F48060086000207047012846
:100B0000FBD0086820F4C06040F4007008600B4817
:100B10003222006850430A4AB0FBF2F0401C00E069
:100B2000401E4A69520501D50028F9D1486940059F
:100B3000E3D5032070470000007000400C00002047
:100B400040420F000248006800F4C0607047000097
:100B5000007000400248016841F4807101607047F4
:100B6000007000400248016841F0040101607047D4
:100B7000001002402DE9F84F044600270088E54D9B
:100B80003E46010504F1200B1DD5606E78B1B0F52D
:100B9000800F11D0B0F5000F04D0B0F5400F22D077
:100BA00001270FE0E86840F48030E8601BE0002196
:100BB000201D01F0CFFC03E00021584601F060FD4C
:100BC000070010D03E462088C00426D5A06EC0B1D4
:100BD000B0F1807F1AD0B0F1007F0DD0B0F1407F2E
:100BE00019D0012718E0D5F88800616E20F4400084
:100BF0000843C5F88800E6E7E86840F48030E8601C
:100C000009E00021201D01F0A5FC03E00021584669
:100C100001F036FD0746F7B13E46206880033AD51D
:100C2000A86D4FF00008C00009D4A86D40F08050B6
:100C3000A865A86D4FF0010800F080500090DFF823
:100C4000D8A2DAF8001041F48071CAF80010FFF75A
:100C50001DFD814610E0D5F88800A16E20F040709F
:100C60000843C5F88800D8E7FFF710FDA0EB09009E
:100C7000022801D9032705E0DAF80000C005F3D502
:100C8000002F7CD04FEA0706B8F1000F03D0A86D03
:100C900020F08050A8652078C00707D0D5F88800DC
:100CA000A16B20F003000843C5F888002078800776
:100CB00007D5D5F88800E16B20F00C000843C5F893
:100CC00088002078400707D5D5F88800216C20F0EF
:100CD00030000843C5F888002078000707D5D5F80C
:100CE0008800616C20F0C0000843C5F888002078B7
:100CF000C00607D5D5F88800A16C20F440700843E1
:100D0000C5F888002078800607D5D5F88800E16C02
:100D100020F440600843C5F888002088800507D586
:100D2000D5F88800E16D20F440200843C5F888001C
:100D30002088400507D5D5F88800216E20F44010A2
:100D40000843C5F888002078400607D5D5F8880004
:100D5000216D20F440500843C5F888002078000633
:100D600007D5D5F88800616D20F440400843C5F8E8
:100D700088002088C00509D5D5F8880000E01CE06F
:100D8000A16D20F440300843C5F8880020884FF05A
:100D9000006780044FF080684FD5D5F88800E16E79
:100DA00020F040600843C5F88800E06EB8423CD1AE
:100DB000E86840F48010E8603FE0D5F8900010F457
:100DC000407015D0D4F88410814211D0D5F890002D
:100DD000D5F8901020F4407041F48031C5F890109F
:100DE000D5F8901021F48031C5F89010C5F8900026
:100DF000C00710D0FFF74AFC074641F2883906E0E9
:100E0000FFF744FCC11B494501D903263CE7D5F84F
:100E100090008007F4D5D5F89000D4F8841020F421
:100E200040700843C5F890002EE7404505D10121E8
:100E3000201D01F08FFB00B106462068000317D586
:100E4000D5F88800216F20F040600843C5F888007D
:100E5000206FB84204D1E86840F48010E86007E0F1
:100E6000404505D10121201D01F074FB00B106466B
:100E70002068400317D5D5F88800616F20F04060E6
:100E80000843C5F88800606FB84204D1E86840F4B0
:100E90008010E86007E0404505D10121201D01F0E8
:100EA00059FB00B10646208840041AD5D5F88800C1
:100EB000A16F20F040500843C5F88800A06FB0F142
:100EC000805F03D0B0F1005F05D00AE00221201D51
:100ED00001F040FB03E00221584601F0D1FB00B1D4
:100EE00006462088000407D5D5F88800E16F20F079
:100EF00080400843C5F888002068C00307D555F82E
:100F0000880FD4F8801020F0004008432860304655
:100F100000F004B8001002400070004018BCBDE8AA
:100F2000E08F00002DE9F0470F46050058D0404EF5
:100F3000306800F00700B84209D2306820F007009E
:100F400038433060306800F00700B84248D1287854
:100F5000384CC0072CD06868032811D0022812D062
:100F6000216898B1490500293ADAA16821F0030106
:100F70000143A160FFF78AFB804641F2883910E007
:100F800021688901EFE721688903ECE78907EAE72F
:100F9000FFF77CFBA0EB0801494502D90320BDE81F
:100FA000F087A068696800F00C00B0EB810FEFD10A
:100FB0002878800705D5A068A96820F0F0000843CC
:100FC000A060306800F00700B8420BD9306820F00C
:100FD000070038433060306800F00700B84201D0A5
:100FE0000120DCE72878400705D5A068E96820F4EF
:100FF000E0600843A0602878000706D5A06829694A
:1010000020F4605040EAC100A06000F03FF8A16801
:10101000094AC1F30311515C01F01F01C84007499F
:10102000086007480068BDE8F047FFF7DFBC000034
:1010300000200240001002407C2E00080C0000201E
:10104000000000200548064900688968054AC1F388
:101050000221515C01F01F01C84070470C000020C4
:1010600000100240BC2E0008054806490068896847
:10107000054AC1F3C221515C01F01F01C84070470D
:101080000C00002000100240BC2E000870B525495D
:10109000002318468A68CC6812F00C0204F003069C
:1010A000214C4FEA640509D00C2A05D0042A32D01D
:1010B000082A00D1284670BD012E10D10B681B07ED
:1010C00004D4D1F89430C3F3032302E00B68C3F3D4
:1010D0000313164E56F82330DAB10C2AEBD1C86848
:1010E00000F00300022818D0032818D01846CA6858
:1010F000CB68C2F30212C3F306234343521CB3FB73
:10110000F2F2C868C0F34160401C4000B2FBF0F04E
:1011100070BD184670BD204670BD2046E7E72846E2
:10112000E5E70000001002400024F4008C2E0008C7
:101130002DE9F84304006ED0FD4DA86800F00C06C0
:10114000E86800F003072078C00663D576B10C2E5E
:1011500001D1012F0AD0A0690028286878D040F07A
:1011600001002860FFF792FA80465BE0286880075C
:1011700002D5A0690028DED0216A2868000703D5BF
:10118000286800F0F00004E0D5F89400F02202EAAC
:101190001010814216D9084601F0F6FA00283AD11B
:1011A000286840F0080028602868216A20F0F000D4
:1011B000084328606868E16920F47F4040EA012024
:1011C000686015E0286840F0080028602868216AF7
:1011D00020F0F000084328606868E16920F47F404F
:1011E00040EA01206860206A01F0CEFA0028D6D1DA
:1011F000FFF74CFFA968CF4AC1F30311515C01F01E
:101200001F01C840CC490860CC480068FFF7EEFBDE
:1012100000287DD12DE0C9E0FFF738FAA0EB0800E7
:10122000022876D828688007F6D5286840F008009C
:1012300028602868216A20F0F00008432860686868
:10124000E16920F47F4040EA0120686011E0FFE797
:1012500020F001002860FFF719FA804606E000BF81
:10126000FFF714FAA0EB08000228DAD828688007F4
:10127000F6D42078C00740D0082E18D00C2E01D10B
:10128000032F14D06068B0F5803F17D0B0F5A02FC1
:10129000286817D020F480302860286820F4802047
:1012A00028606068E0B1FFF7F1F9804614E0286833
:1012B000800322D56068002878D01EE0286840F4BA
:1012C0008030EDE740F480202860F7E7FFF7DEF993
:1012D000A0EB08006428A4D828688003F6D50CE0A9
:1012E000FFF7D4F9804605E0FFF7D0F9A0EB08003E
:1012F000642896D828688003F6D4207880073BD5E8
:10130000042E11D00C2E01D1022F0DD0E06801E087
:101310003EE19FE0002828681ED040F480702860DD
:10132000FFF7B4F907460CE0286840050CD5E068E3
:101330000028C1D008E000BFFFF7A8F9C01B0228B1
:1013400093D828684005F7D56868217C20F0F850CC
:1013500040EA016068600FE020F480702860FFF7C9
:1013600095F9074605E000BFFFF790F9C01B02287A
:1013700070D828684005F7D42078000729D560691F
:101380000028D5F8940012D040F00100C5F8940070
:10139000FFF77CF9074604E0FFF778F9C01B022845
:1013A00058D8D5F894008007F6D512E029E120F04E
:1013B0000100C5F89400FFF769F9074605E000BF92
:1013C000FFF764F9C01B022844D8D5F894008007C1
:1013D000F6D42078400768D5A86D0027C00008D44F
:1013E000A86D40F08050A865A86D012700F08050DE
:1013F000009053480168C90512D40168814641F440
:1014000080710160FFF742F9804605E0FFF73EF981
:10141000A0EB080002281DD8D9F80000C005F5D5BA
:10142000A068012817D00528D5F8900018D020F022
:101430000100C5F89000D5F8900020F0040000BF2E
:10144000C5F89000A06841F28839D0B1FFF71EF9C5
:10145000804611E06BE0D5F8900040F00100EFE726
:1014600040F00400C5F89000F5E700BFFFF70EF963
:10147000A0EB080149455AD8D5F890008007F5D56A
:101480000EE0FFF703F9804606E000BFFFF7FEF825
:10149000A0EB080149457AD8D5F890008007F5D42B
:1014A0001FB1A86D20F08050A865A06AF0B30C2E83
:1014B00075D00228286820F08070286004D0286841
:1014C00010F0205F51D054E0FFF7E0F8064604E04A
:1014D000FFF7DCF8801B022859D828688001F7D470
:1014E000D4E90B016FF00F0202EB01110843A18F49
:1014F0005204490802EB4151626B41EA0221084360
:1015000094F840104FF07E42490802EB41610843D5
:10151000A16B090940EA4140E9680A4A11400843C1
:10152000E860286840F0807028600DE06BE02EE0F5
:10153000001002407C2E00080C000020000000205B
:10154000007000408C809DF9E86840F08070E86091
:10155000FFF79CF8044604E0FFF798F8001B022808
:1015600015D828688001F7D54DE0E86820F0030021
:10157000E860E86825490840E860FFF787F8044616
:1015800009E000BFFFF782F8001B022803D90320FF
:10159000BDE8F88303E028688001F3D433E0012834
:1015A000F6D0E868E26A00F00301914229D1216B8C
:1015B00000F0700209011039914222D1626B00F4EF
:1015C000FE41B1EB022F1CD1A26B00F40031072ABF
:1015D00001D0012200E00022914212D1A18F00F43B
:1015E000C00249084905A1F50011914209D194F8BA
:1015F000401000F0C06049084906A1F10071814225
:1016000001D00120C4E70020C2E70000FFFFEEFE8A
:1016100010B504004FF0010044D094F8210028B91F
:10162000002084F82000204600F040F8022084F8D2
:1016300021002168CA204862216853204862204660
:1016400001F0E0F800282DD120688168164A114089
:101650008160216888686268A369104322691A431F
:10166000104388602168E068086120680169228968
:1016700041EA02410161204601F0E8F8002811D159
:101680002168CA6C22F00302CA646269E1691143ED
:101690002268D36C1943D1642268FF215162012171
:1016A00084F8211010BD0000BFFF8FFF00680549BE
:1016B000884205D1044850F8901F41F40041016070
:1016C00070470000002800400010024070B504463A
:1016D0000068C16821F0A001C160FEF7D7FF054690
:1016E0004FF47A7607E000BFFEF7D0FF401BB04210
:1016F00001D9032070BD2068C0688006F4D50020A1
:1017000070BD2DE9F041040005D00025A56294F8D4
:101710005D0018B107E00120BDE8F08184F85C505D
:10172000204600F045F8022384F85D302068016807
:1017300021F040010160E0684FF4E066B04201D959
:10174000002101E04FF48051B0F5706F02D0B0423B
:1017500000D0A562276B012227B9B04201D92363CB
:1017600000E02263D4E901031843D4E9043633438B
:101770001843238B03F400731843E3691843236A67
:101780001843A36A184323681860636B606AA669EC
:1017900018430427E36807EA16463343184308430F
:1017A00021684860256684F85D200020B4E70000C9
:1017B00070B586B0044614216846FEF73CFD2A4EFB
:1017C000256800212948022203230524B5421CD1A3
:1017D000056E45F480550566056E05F48055059542
:1017E000C56C45F00105C564C06C02AD00F0010098
:1017F000059085E81A00F020CDE9000269464FF017
:101800009040FEF759FE06B070BD194EB542FAD1B0
:10181000856D45F480458565856D05F480450595A4
:10182000C56C45F00205C564C06C02AD00F0020055
:10183000059085E81A00B000CDE900020D4D69461B
:101840002846FEF739FE0122B414CDE90042029287
:10185000694628460392FEF72FFE012221462846BC
:10186000FEF70FFFCFE700000030014000100240FC
:10187000003800400004004810B5401EB0F1807FE1
:1018800001D3012010BD4FF0E02460610F216017EB
:1018900001F0B7FA0020A06107202061002010BDF0
:1018A000704770472DE9F04102680446D06911681D
:1018B000936810F00F0F4FF0000565D003F001069C
:1018C00001F49077374375D0C70709D0CF0507D506
:1018D00001271762D4F8802042F00102C4F880206A
:1018E00082070AD5DA0708D0276802223A62D4F8BC
:1018F000802042F00402C4F8802042070AD5DA07AB
:1019000008D0236804221A62D4F8802042F0020230
:10191000C4F8802002070CD501F02002324308D021
:10192000236808221A62D4F8802042F00802C4F822
:101930008020D4F88020002A33D0800605D5880680
:1019400003D5616E09B120468847D4F8800021682C
:101950008968490601D4000726D5204601F0AFF872
:1019600020688168490619D5816821F040018160AD
:10197000206F98B121498163206FFEF7AAFC0028EF
:101980000FD0206F816B06E0860613D58E0611D529
:10199000616E20E02046BDE8F04108472046FFF791
:1019A00080FFBDE8F08105E02046FFF77AFFC4F82C
:1019B0008050F6E7C60209D55B0207D54FF48010C8
:1019C00010622046BDE8F041FFF76ABF030605D567
:1019D0000B0603D5A16E0029DCD1E2E74006E0D575
:1019E0004806DED51168204621F040011160202113
:1019F000A167A56600F004F9D3E70000AB2A000850
:101A000010B5040002D0A06F10B107E0012010BD96
:101A1000002084F87400204600F026F82420A067F7
:101A20002068016821F001010160204601F056F8AC
:101A30000128ECD0606A10B1204600F0A5FF2068B4
:101A4000416821F4904141602068816821F02A01B9
:101A500081602068016841F0010101602046BDE815
:101A6000104000F0F5BF0000F0B587B00646142125
:101A70006846FEF7E0FB5A4BD6F800C000245949EF
:101A800002250320584A9C4521D18B6D43F4002345
:101A90008B658B6D03F400230593CB6C43F004033B
:101AA000CB64C96CCDE9024001F0040105918102CB
:101AB000CDE900150820049069461046FEF7FCFCAD
:101AC000002211463420FEF7D7FF342027E0DFF84C
:101AD0001CE107234FF09047F44524D10A6E42F4ED
:101AE00080420A660A6E02F480420592CA6C42F095
:101AF0000102CA64C96C029401F0010105914FF41E
:101B0000C061CDE90015CDE9030369463846FEF70B
:101B1000D3FC002211462520FEF7AEFF2520FEF75C
:101B20009DFF07B0F0BDDFF8C8E0F44520D18A6D15
:101B300042F400328A658A6D02F400320592CA6C62
:101B400042F00102CA64C96C029401F001010591DE
:101B50000C21CDE90015CDE9030369463846FEF7AF
:101B6000ABFC002211462620FEF786FF2620D6E792
:101B7000204FBC45D5D18F6D47F480278F658F6D81
:101B800007F480270597CF6C47F00407CF64C96C32
:101B9000029401F0040105913021CDE90015CDE951
:101BA000030369461046FEF787FC144F124838605D
:101BB000C7E901548020C7E903407C61BC61FC6136
:101BC00038463C62FEF70AFC08B1FEF781FB376736
:101BD000002211462720BE62FEF74EFF27209EE717
:101BE000004C00400010024000080048003801404E
:101BF000004400400048004030000240B403002090
:101C00007047FEE70148FEF79DBD00001000002070
:101C10000148FEF7CBBD0000100000200148FEF790
:101C200091BD00005C0000200148FEF7BFBD000030
:101C30005C00002010B5806A0021826B9163C26B4A
:101C4000916390F84110602902D0FEF7B7FD10BDF6
:101C5000202180F84110FEF773FD10BD10B5002261
:101C6000CC074FF0280306D090F84140422233EAD7
:101C7000040400D0F2228C0707D590F8414042F0CE
:101C80004402A34301D042F0B0024B0701D542F019
:101C9000B80211238B4301D142F0900212238B43EF
:101CA00001D142F06002006801689143016010BDFB
:101CB00001688A69D243920701D400228A620068CF
:101CC0008169C943C90703D0816941F0010181617C
:101CD00070472DE9F041044690F8410028218143E6
:101CE00020684FF000054FF0080304D0C36184F86A
:101CF0004050BDE8F0818169C1F300478169FE224F
:101D000002EA11468168C1F30902C168D4F80CC027
:101D100001F0FE01BCF1020F17D14FF0060C06F0E6
:101D200006060CEAD21C66450ED1A16C491CA164C2
:101D3000A16C0229DDD1A564C36184F84050394605
:101D40002046FEF7FEFCD4E70E4604212046FFF7AE
:101D500085FF84F840503246F1E7000070B5044634
:101D600090F84100002584F84250314AE2626585CE
:101D7000626C0A4362642026282825D0292823D0B3
:101D80002A2821D007212046FFF768FF94F8410058
:101D9000602801D084F8416025636563206801688C
:101DA0004A04244902681AD522F480420260A06BDA
:101DB000002833D0816384F84050A06BFEF789FA85
:101DC00000282BD0A06B1CE003212046FFF746FF24
:101DD000282084F84100256317486063DEE7120479
:101DE00013D5026822F400420260E06B002815D08F
:101DF000816384F84050E06BFEF76BFA00280DD049
:101E0000E06B816BBDE87040084794F841006028A2
:101E100005D084F840502046FEF7D0FC70BD84F811
:101E2000416084F840502046FEF78AFC70BD0000F7
:101E30000000FFFF351C0008E11F000870B50446D4
:101E40001548E06200252563202084F8410084F8CD
:101E50004250C8436563400711D42068406A616AF4
:101E60000870606A401C6062208D40B1401E208571
:101E7000608D401E6085606C40F004006064072146
:101E80002046FFF7EBFE21681020C86184F840501F
:101E90002046FEF7F1FC70BD0000FFFF2DE9F04188
:101EA00004460068056820270E46C76107212046C2
:101EB000FFF7D4FE2068416841F40041416020688A
:101EC0004168304A114041602046FFF7F1FEE84387
:101ED000410401D4A06B02E0000404D4E06B10B113
:101EE000006840686085F04340070FD4206826F002
:101EF0000406406A616A0870606A401C6062208D56
:101F000020B1401E2085608D401E6085608D18B117
:101F1000606C40F0040060640025256384F8425042
:101F20006563606C68B1616C2046FFF717FF94F839
:101F30004100282814D131462046BDE8F041FFF782
:101F40007DBFE06A104EB0420CD0204600F01EF873
:101F5000E66284F8417084F840502046FEF78CFC1D
:101F6000BDE8F08194F8410084F84170222884F89B
:101F70004050204602D0FEF7F0FCF1E7FEF7ECFC03
:101F8000EEE7000000E800FE0000FFFF70B500254E
:101F9000044680F8425090F841102820292911D099
:101FA00094F841102A290CD184F8410022202063A2
:101FB00002212046FFF752FE84F840502046FEF7EB
:101FC000CBFC70BD84F84100212020630121204614
:101FD000FFF744FE84F840502046FEF7BEFC70BD7B
:101FE0002DE9F0410446C06A0D4694F840100129DD
:101FF0001ED0012184F84010E943424B5FEAC16CD6
:102000004FF080776FEA020631D4F2062FD4628D4A
:10201000102182B12268D161616C41F004016164D8
:1020200008B1B84260D1616C2046FFF797FE5BE0D3
:102030000220BDE8F08194F84120282A02D1B0F1B5
:10204000007F04D094F84120292A05D00CE02946CD
:102050002046FFF7F3FE47E0984205D02068C161B3
:102060002046FFF725FE3CE02068C1613CE04A07BE
:1020700017D4720715D4618D71B1216825F004055C
:10208000496A626A1170616A491C6162218D491E48
:102090002185618D491E6185618D29BB984220D1C2
:1020A00022E00A0706D4320704D429462046FFF767
:1020B00010FE19E0890717D4B10715D4618D69B1F5
:1020C000606A216800788862606A401C6062608D86
:1020D000401E6085208D401E208505E0B84200D05E
:1020E00010B92046FFF752FFE843800605D4B0063A
:1020F00003D429462046FFF7D1FE002084F8400093
:1021000097E700000000FFFF094808B5816C41F027
:1021100001018164806C002200F0010000901146F2
:102120000D20FEF7A9FCBDE808400D20FEF796BC87
:10213000001002402DE9F04F87B014216846FEF7E9
:102140007AF85048C16C41F01001C164C16C01F0D3
:1021500010010591C16C41F00401C164C16C01F032
:1021600004010591C16C41F08001C164C16C01F0B2
:1021700080010591C16C41F00101C164C16C01F0A5
:1021800001010591C16C41F00201C164C16C01F013
:1021900002010591C16C41F00801C164C06CDFF817
:1021A000E88000F008000590002217214046FEF765
:1021B00068FADFF8D8B041F20327002239465846C2
:1021C000FEF75FFADFF8C8A04FF4807600223146B0
:1021D0005046FEF756FADFF8BC900022C021484670
:1021E000FEF74FFA1720009001250024CDE9015495
:1021F000694640460394FEF75FF90097CDE9015424
:10220000694658460394FEF757F90096CDE9015404
:10221000694650460394FEF74FF940F201400090A2
:102220001D48CDE9010469465046FEF745F9C0272F
:102230000097CDE90154694648460394FEF73CF9FE
:10224000CDE90074694650460294FEF735F9CDE9B0
:102250000064694658460294FEF72EF900221146A2
:102260000620FEF709FC0620FEF7F8FB00221146C7
:102270002820FEF701FC2820FEF7F0FB07B000F055
:102280000DB8000000100240001000480004004893
:10229000000C0048000800480000111030BCBDE8E8
:1022A000C08F0000144810B51249016040F6146157
:1022B000416000210122C0E9021201614161816196
:1022C000C1610162FEF77CFA08B1FEF701F8002156
:1022D0000948FEF7E1F908B1FDF7FAFF00210648C9
:1022E000FEF705FA002803D0BDE81040FDF7F0BF67
:1022F00010BD00000054004010000020144810B52C
:102300001249016040F61461416000210122C0E9D8
:102310000212016141618161C1610162FEF750FAFF
:1023200008B1FDF7D5FF00210948FEF7B5F908B15E
:10233000FDF7CEFF00210648FEF7D9F9002803D0AB
:10234000BDE81040FDF7C4BF10BD000000580040BC
:102350005C0000200A4810B5084901600321416073
:1023600040F6FF71C1608160FEF7F8FA002803D0E3
:10237000BDE81040FDF7ACBF10BD000000300040CC
:10238000A80000200C4810B50A49016000217F22F6
:10239000C0E90112FF22C0E9032141618161C161ED
:1023A000FFF736F9002803D0BDE81040FDF790BFD5
:1023B00010BD000000280040B8000020124810B5F1
:1023C000104901604FF48271416000214FF4407266
:1023D000C0E902124FF480220161C0E90512C16117
:1023E000016207224162C0E90A12016308214163C8
:1023F000FFF787F9002803D0BDE81040FDF768BF5C
:1024000010BD000000300140DC000020124810B573
:10241000104901604FF48271416000214FF4407215
:10242000C0E902124FF400720161C0E90512C161F6
:10243000016207224162C0E90A1201630821416377
:10244000FFF75FF9002803D0BDE81040FDF740BF5B
:1024500010BD000000380040400100200D4810B5BC
:102460000B4901604FF4E1314160002181600C2291
:10247000C160C0E904128161C16101624162FFF77C
:10248000BFFA002803D0BDE81040FDF721BF10BD02
:10249000004C0040A40100200D4810B50B4901601C
:1024A0004FF4E1314160002181600C22C160C0E93C
:1024B00004128161C16101624162FFF7A1FA002843
:1024C00003D0BDE81040FDF703BF10BD0038014048
:1024D000280200200D4810B50B4901604FF4E1318E
:1024E0004160002181600C22C160C0E90412816159
:1024F000C16101624162FFF783FA002803D0BDE8A1
:102500001040FDF7E5BE10BD00440040AC020020C5
:102510000D4810B50B4901604FF4E13141600021D5
:1025200081600C22C160C0E904128161C161016255
:102530004162FFF765FA002803D0BDE81040FDF7BF
:10254000C7BE10BD0048004030030020FEE77047C2
:10255000704700002DE9F041444C05468846E0688C
:102560000026810728680DD0E16801F0030181424F
:1025700016D1A8B1E0686968C0F30210401C884217
:102580000ED120E0012804D0022805D0032807D16D
:1025900008E02168890701E021684905002907DB77
:1025A00001265FE02168890302D421684903F5E729
:1025B000E1686A686FF00F0321F0730103EB021208
:1025C00011430143E160206820F080602060FEF745
:1025D0005DF8074605E000BFFEF758F8C01B02286B
:1025E00037D820680001F7D4B8F1000F18D0B8F13F
:1025F000010F1ED0287D4FF07E41400801EB406066
:10260000A96840EA01202169194A11400843206164
:10261000206840F080602060FEF738F807461AE036
:10262000A868E9680002090940EA41402169114AA5
:10263000EBE7288A1049400801EB4050A96840EABE
:10264000012021690D4AE0E7FEF720F8C01B0228AF
:1026500001D9032606E020680001F5D52069A969A3
:10266000084320613046BDE8F081000000100240C0
:10267000FF80FFF9FF80FDFF0000E0FFFF809FFF6C
:102680002DE9F0413D4C06468846E068002581076B
:1026900030680DD0E16801F00301814216D1A8B184
:1026A000E0687168C0F30210401C88420ED120E03F
:1026B000012804D0022805D0032807D108E02168AA
:1026C000890701E021684905002907DB012551E060
:1026D0002168890302D421684903F5E7E16872683B
:1026E0006FF00F0321F0730103EB0212114301435A
:1026F000E160206820F080502060FDF7C7FF0746AA
:1027000005E000BFFDF7C2FFC01B022829D82068E2
:102710008000F7D4B8F1000F15D0307C4FF07E4127
:10272000400801EB4060B16840EA01206169144A49
:10273000114008436061206840F080502060FDF740
:10274000A5FF07460FE0B068F1680002090940EAFA
:10275000414061690B4AEBE7FDF798FFC01B022877
:1027600001D9032506E020688000F5D5606971690C
:10277000084360612846BDE8F08100000010024077
:10278000FF80FFF9FF80FDFFF8B51C4D06460024D1
:10279000A86DC00002D5FEF7D5F90DE0A86D40F098
:1027A0008050A865A86D00F080500090FEF7CAF92F
:1027B000A96D21F08051A965B0F5007F04D0802E6D
:1027C00007D94FF003040AE0802E08D9A02E01D8C3
:1027D00004E001D1022402E0702E00D10124084857
:1027E000016821F0070121430160006800F0070043
:1027F000A04201D00120F8BD0020F8BD0010024029
:10280000002002402DE9F041044600680025C1681F
:10281000490617D4691EC160FDF738FF06464FF41C
:102820007A78032708E000BFFDF730FF801B4045A2
:1028300002D9032584F821702068C068400601D4BD
:10284000032DF1D12846BDE8F08100002DE9F041CB
:10285000064613480025016821F080010160041F2D
:1028600020684FF00307800607D43046FEF72EFF9E
:1028700090B186F8217003250EE0206820F020003A
:1028800020603046FEF722FF10B186F82170032544
:10289000206840F0200020602846BDE8F08100005C
:1028A0000C2800407047FEF789B8000010B5B8B09A
:1028B000442122A8FDF7BFFC142133A8FDF7BBFC7F
:1028C00088216846FDF7B7FCFEF744F9184850F830
:1028D000901F21F0180101601C202290012000248B
:1028E0002490CDE92804279060202A902C9422A8D7
:1028F000FEF71EFC0F20CDE93304359436940021F9
:1029000033A83794FEF70EFB0F940A4810941494E2
:102910000E94119415940412009068462194FEF7C9
:1029200029F92046FEF7DAF8FEF71CF938B010BD99
:1029300000100240CF0002000D48016841F4700110
:1029400001600C48016841F00101016000218160D3
:102950000268094B1A4002608214C260026822F4C5
:102960008022026081610249C0038039086070479B
:1029700088ED00E000100240FFFFF6EA0148FEF794
:1029800091BF0000A401002090F82410C90706D0D0
:1029900001684A68836A22F400321A434A6090F858
:1029A0002410890706D501684A68C36A22F4803278
:1029B0001A434A6090F82410490706D501684A680E
:1029C000036B22F480221A434A6090F8241009070E
:1029D00006D501684A68436B22F400421A434A60F4
:1029E00090F82410C90606D501688A68836B22F422
:1029F00080521A438A6090F82410890606D501682F
:102A00008A68C36B22F400521A438A6090F824103B
:102A1000490611D501684A68036C22F480121A43F2
:102A20004A60016CB1F5801F06D101684A68436CA9
:102A300022F4C0021A434A6090F82410090606D511
:102A400001684A68806C22F4002202434A607047A1
:102A5000F8B500260446C0F88060FDF717FE05466D
:102A6000206800686FF07E47000708D52B460022DB
:102A70004FF400112046009700F080F960B92068FB
:102A8000006840070AD52B4600224FF480012046FB
:102A9000009700F073F908B10320F8BD2020A0676B
:102AA000E06784F874600020F8BD10B5806A0021EA
:102AB000A0F85A10A0F85210FEF7F3FE10BD0168FE
:102AC0000A6822F490720A6001688A6822F00102A2
:102AD0008A602021C1670021416670472DE9F041DD
:102AE0000546016880682B69EC6918436B6900270B
:102AF00023431843954A0B68954C234003430B60CE
:102B000028684168EB6821F4405119434160296805
:102B1000A869914201D02B6A18438B6823F4306373
:102B200003438B608B4B29688B4899420DD1D0F8B9
:102B3000880010F0030006D0012868D0022864D075
:102B4000032851D165E001244FE0844B99420BD119
:102B5000D0F8880010F00C0055D0042857D0082871
:102B600053D00C2840D154E07D4B99420BD1D0F882
:102B7000880010F0300046D0102848D0202844D0DB
:102B8000302831D145E0774B99420BD1D0F88800FD
:102B900010F0C00037D0402839D0802835D0C02868
:102BA00022D136E0704B99420ED1D0F8880010F453
:102BB000407028D0B0F5807F29D0B0F5007F24D0B8
:102BC000B0F5407F10D124E091420DD1D0F88800BB
:102BD00010F4406017D0B0F5806F18D0B0F5006FDA
:102BE00013D0B0F5406F14D01024604B00264FF482
:102BF0000040914245D174B1022C0FD0042C0FD06B
:102C0000082C18D10FE00024EFE70224EDE704249C
:102C1000EBE70824E9E7FEF715FA03E0184602E0BF
:102C2000FEF734FAA8B36A6802EB4201814202D887
:102C3000B0EB023F01D9012775E0DFF834815CB1C8
:102C4000022C0CD0042C13D0082CF4D150082105F0
:102C5000401846F1000105E0FEF7F4F90AE05008DB
:102C60004449F5E70023FDF7ABFAA0F5407156E0C3
:102C7000FEF70CFA6A68010E030250081818714139
:102C8000F0E7E9694FF6EF7881422FD1092CD2D2D3
:102C900000E048E0DFE804F006092005230505050B
:102CA0002600C8E7FEF7CEF901E0FEF7DDF94100A6
:102CB000D5F8040001EB5001B1FBF0F080B2A0F1B7
:102CC00010014145B7D84FF6F0710140C0F3420002
:102CD00001432868C16026E027496868EAE7FEF7F3
:102CE000D5F9E4E74FF480316868E3E7092CA2D214
:102CF000DFE804F006091E052205050525009AE710
:102D0000FEF7A0F901E0FEF7AFF90146686801EBB4
:102D1000500100BFB1FBF0F080B2A0F110014145BD
:102D200089D82968C8606E663846AE66BDE8F0810D
:102D3000686803EB5001EDE7FEF7A8F9E5E769687D
:102D400000EB5100B0FBF1F0E6E70000008000402E
:102D5000F369FFEF003801400010024000440040DA
:102D600000480040004C0040005000400024F400A7
:102D7000FFFC0F00000024F40048E8012DE9F041B9
:102D8000984617460E460446069D08E0681C06D085
:102D9000FDF77CFCA0EB0800A8420BD855B12068D9
:102DA000C06936EA000017D00020B842EED00020FB
:102DB000BDE8F0812068016821F4D07101602068CD
:102DC000816821F0010181602020A067E067002078
:102DD00084F874000320EBE70120E6E70148FEF7E2
:102DE00061BD0000280200200148FEF75BBD000025
:102DF000AC0200200148FEF755BD00003003002062
:102E0000FEE70907090E002804DB00F1E02080F846
:102E10000014704700F00F0000F1E02080F8141D4E
:102E2000704702E008C8121F08C1002AFAD1704793
:102E30007047002001E001C1121F002AFBD170473A
:102E4000FDF7C4FDFFF732FDFFF774F9FFF75CF9FA
:102E5000FFF728FAFFF752FAFFF7B0FAFFF7D6FAB2
:102E6000FFF7FCFAFFF718FBFFF734FBFFF750FB07
:102E7000FFF770FAFFF786FAFEE700000000000097
:102E8000000000000102030406070809A0860100F3
:102E9000400D0300801A060000350C0040420F0070
:102EA00080841E0000093D0000127A000024F40016
:102EB00000366E010048E801006CDC0200000000F2
:102EC00001020304E42E00080000002010000000AE
:102ED000222E0008F42E000810000020F007000049
:102EE000322E000810000000010000000000000069
:042EF00000093D0098
:040000050800018965
:00000001FF
