:020000040800F2
:1000000020170020D1010008CB2A00081B2100087E
:10001000C92A000869030008313700080000000001
:100020000000000000000000000000009D300008FB
:10003000250400080000000007030008152C000834
:10004000EB010008EB010008EB010008EB010008E0
:10005000EB010008EB010008EB0100082F04000889
:10006000EB010008EB010008EB010008EB010008C0
:10007000EB01000819040008EB010008EB0100087F
:10008000EB010008EB010008EB010008EB010008A0
:10009000EB010008EB010008EB010008EB01000890
:1000A000EB010008EB010008EB010008EB01000880
:1000B000EB01000869310008EB0100082921000864
:1000C0001D2100084121000835210008EB0100082E
:1000D000EB0100080D370008193700082537000824
:1000E00027040008EB010008EB010008EB01000801
:1000F000EB010008EB010008EB010008EB01000830
:10010000EB010008EB010008EB010008EB0100081F
:10011000AD320008EB01000875310008EB01000862
:10012000EB010008EB010008EB010008EB010008FF
:10013000EB010008EB010008EB010008EB010008EF
:10014000EB010008EB010008EB010008EB010008DF
:10015000EB010008EB010008EB010008EB010008CF
:10016000EB010008EB010008EB010008EB010008BF
:10017000EB010008EB010008EB01000800000000A3
:10018000EB010008EB010008DFF80CD000F098F854
:1001900000480047713700082017002072B67047EA
:1001A00062B67047EFF3108072B6704780F3108824
:1001B000704730BF704720BF7047B0FA80F070477B
:1001C00090FAA0F0B0FA80F0704790FAA0F0704773
:1001D0000648804706480047FEE7FEE7FEE7FEE7E1
:1001E000FEE7FEE7FEE7FEE7FEE7FEE72531000853
:1001F000890100082DE9F05F0546002092469B46E4
:1002000088460646814640241BE02846414647462C
:10021000224600F044F853465A46C01A914110D382
:1002200011461846224600F02BF82D1A67EB0108FC
:100230004F4622460120002100F022F817EB00096A
:100240004E41201EA4F10104DFDC484631462A4617
:10025000434600F000B830BCBDE8C09FD2B201E018
:1002600000F8012B491EFBD270470022F6E710B5BB
:1002700013460A4604461946FFF7F0FF204610BD14
:10028000202A04DB203A00FA02F100207047914056
:10029000C2F1200320FA03F3194390407047202A4B
:1002A00004DB203A21FA02F00021704721FA02F320
:1002B000D040C2F120029140084319467047000027
:1002C000064C074D06E0E06840F0010394E80700A3
:1002D00098471034AC42F6D3FFF75AFFF8370008BE
:1002E0001838000818484FF0FF010170002080F313
:1002F00009881648016881F3088815484FF0805135
:10030000016062B6FEE772B6EFF3098028B12038CB
:1003100080E8F00F0F490968086000B50E48804773
:100320005DF804EB0D480E490A78027009480D4942
:100330000A680260106890E8F00F203080F30988A6
:100340004EF0040E62B6704722ED00E02C00002053
:1003500004ED00E05C0000205D2B00084A00002056
:100360004B00002060000020FEE7000003490969FF
:10037000884201D9401A70470020704710000020C1
:1003800010B5FFF70FFF04494C69FFF70FFF204638
:10039000BDE81040FFF7EABF1000002010B5FFF7DE
:1003A000EFFF0446FFF7FEFE034A00215161FFF70D
:1003B000FDFE204610BD00001000002010B5064CC8
:1003C0002088401C2080608810B900F01FF8A060D1
:1003D0006088401C608010BD1000002010B50A4CE1
:1003E0006088401E0004000C60800CD100F00EF804
:1003F000E060A168401A6169814200D26061A16930
:10040000814200D2A06110BD100000200148406868
:1004100070470000001000E0014800F033B8000011
:100420000C04002070474FF4806000F0EBB802200D
:1004300000F0E8B8704710B590F8251000240229A4
:1004400003D00421C16301241AE001680A6822F084
:100450000E020A6001680A6822F001020A6090F840
:100460004410036C01F01C02012101FA02F25A60EF
:1004700080F82510002180F82410816B01B1884795
:10048000204610BDF0B4016C0C6801680D6890F84E
:10049000442002F01C06042202FA06F3234211D083
:1004A0006B070FD50B689B0603D40B6823F004037E
:1004B0000B6090F8441001F01C018A40016C4A6006
:1004C000016B1DE0022303FA06F727424FF0000CF0
:1004D0004FF0010218D0AF0716D50C68A40605D45A
:1004E0000C6824F00A040C6080F8252090F8441071
:1004F00001F01C018B40016C4B6080F824C0C16A84
:1005000000291AD0F0BC08470823B340234214D076
:100510002B0712D50B6823F00E030B6090F84410E4
:10052000036C01F01C0102FA01F15960C26380F80A
:10053000252080F824C0416BE2E7F0BC7047000042
:1005400070B568B12B4C036814212B4AA34209D221
:100550002A4C1C44B4FBF1F18900C0E910210BE0E6
:10056000012070BD234C64421C44B4FBF1F18900AE
:100570004164204908390164022180F825101C6873
:1005800047F6F0718C43D0E902152943D0E90456AF
:100590003543294385692943C5692943056A2943A8
:1005A000214319608168B1F5804F19D0036C0F2188
:1005B000934202D152F8A83F02E00E4AA0321368DB
:1005C00090F8444004F01C04A1408B43136090F861
:1005D0004430416803F01C039940136819431160CB
:1005E0000021C163012280F8252080F824100846EC
:1005F00070BD00000804024000000240F8FFFDBF8B
:1006000070470000044910B50A68024202D0086031
:10061000FFF7F6FF10BD0000140401402DE9F84F6C
:10062000DFF898B100234FF0010C4FF0030A4FF0B0
:100630000F090BF1040EB9E00CFA03F4224070D05C
:100640004D68022D01D0122D0ED1DD0800EB85087A
:10065000D8F820505E07F70E09FA07F6B5430E6981
:10066000BE402E43C8F8206007685E0091F8048001
:100670000AFA06F508F00308AF4308FA06F848EA54
:100680000708C0F800804F68012F05D0022F03D063
:10069000112F01D0122F13D1D0F80880CF6828EA8B
:1006A0000508B74047EA08078760D0F804800F794B
:1006B00028EA0408C7F300179F4047EA0807476085
:1006C000D1F804806FEA0807BF0706D1C76AA743BD
:1006D000C8F3C0049C403C43C462C468AC438D680A
:1006E000B5402543C5604C68E4005ED5344C256EAA
:1006F00045F001052566246E23F0030504F001048E
:100700000094304C2E19B4689D072F0F09FA07F595
:10071000AC43B0F1904F05D02B4DA84204D1012538
:100720001CE042E0002519E0284DA84201D1022535
:1007300014E0274DA84201D103250FE0254DA84222
:1007400001D104250AE0244DA84201D1052505E088
:10075000224DA84201D1062500E00725BD402543D2
:10076000B560DBF800405D464E689443F60300D563
:1007700014432C60DEF8004075464E689443B6037F
:1007800000D514432C600D4D08352C684E689443F9
:10079000F60200D514432C60084D0C352C684E68C9
:1007A0009443B60200D514432C605B1C0A6832FAED
:1007B00003F57FF441AF00F013B8000000040140DE
:1007C00000100240000001400004004800080048FA
:1007D000000C0048001000480014004800180048B1
:1007E00018BCBDE8E08F0AB1816170478162704733
:1007F00001488068704700000400002090F8412004
:10080000202A24D190F84020012A20D0012280F80B
:100810004020242280F841200268136823F001035D
:1008200013600268136823F480531360026813682E
:100830000B43136001680A6842F001020A6020213C
:1008400080F84110002180F84010084670470220CF
:10085000704790F84120202A22D190F84020012AA8
:100860001ED0012280F84020242280F84120026816
:10087000136823F0010313600268136823F47063A4
:1008800043EA0121116001680A6842F001020A602E
:10089000202180F84110002180F840100846704760
:1008A000022070477047704730B403689A6919682E
:1008B000D243D40509D4CC43240606D4446C44F076
:1008C000010444644FF48074DC6153050AD4CB43C3
:1008D0001B0607D4436C43F00803436404684FF4D9
:1008E0008063E36192050AD4C943090607D4416CC9
:1008F00041F00201416402684FF40071D161416C22
:1009000011F00B0F02D030BC01F0B4BC30BC70470A
:10091000026891691268436B002B00D0184770473A
:100920007047000070B5040004D094F84100002521
:1009300010B106E0012070BD84F84050204600F060
:100940004FF8242084F841002068016821F001015B
:1009500001606068216820F070600861206881682B
:1009600021F400418160E0680128A06807D040F4CC
:10097000044021688860E068022803D006E040F463
:100980000040F6E721684FF4006048602068416845
:10099000114A114341602068C16821F40041C160DF
:1009A000D4E904010843A16940EA01202168C86034
:1009B000D4E907010843216808602068016841F014
:1009C000010101606564202084F84100256384F8FA
:1009D0004250002070BD00000080000270470000FF
:1009E000F0B587B0044614216846FFF73EFC2F4F50
:1009F00026682F4C12210122032304252D48BE42D4
:100A000026D1E66C46F00206E664E66C01AF06F01D
:100A100002060596C026009687E82E006946FFF775
:100A2000FDFDA06D40F40010A065A06D002200F453
:100A30000010059011461F2000F0EEF81F2000F076
:100A4000DDF800221146202000F0E6F8202029E001
:100A5000194FBE4228D1E66C46F00206E664E66C09
:100A600001AF06F0020605964FF44066009687E84F
:100A70002E006946FFF7D2FDA06D40F48000A0650E
:100A8000A06D002200F4800005901146212000F0A6
:100A9000C3F8212000F0B2F800221146222000F015
:100AA000BBF8222000F0AAF807B0F0BD00540040C7
:100AB0000010024000040048005800407047704792
:100AC00070B5040011D021684CF6CC400860216854
:100AD00045F255500860D4E9000141602168A068E2
:100AE0008860FFF785FE054609E0012070BD00BF64
:100AF000FFF77EFE401B302801D9032070BD20681F
:100B0000C0680028F4D120680269E1688A4201D0F7
:100B1000016102E04AF6AA210160002070BD0000D8
:100B200002488168426811448160704704000020D7
:100B300010B50024032000F08FF8002000F008F822
:100B400008B1012401E000F043F8204610BD000088
:100B500000B5014687B00022362000F05DF836204F
:100B600000F04CF81648816D41F010018165806DF0
:100B700006A900F010000590684600F023FB0398DA
:100B8000B8B100F03FFB40000E490F4AB0FBF1F155
:100B90000E48491E0260416040F2E7320021C0E980
:100BA00003218160816100F07BFF28B1012007B043
:100BB00000BD00F027FBE7E7044800F0ABFFF6E7D5
:100BC0000010024040420F0000100040940400203A
:100BD000094808B5016E41F001010166016E01F09E
:100BE00001010091816D41F080518165806D00F0BF
:100BF0008050009008BD000000100240002809DB72
:100C000000F01F02012191404009800000F1E02026
:100C1000C0F8001170470000F0B40E4B1B680C4682
:100C2000C3F30223C3F10705042D00D90425191DC0
:100C3000072901D2002300E0DB1E012606FA05F198
:100C4000491E214099409E40761E16403143F0BC1B
:100C500002F06FBD0CED00E0064900F007020868E5
:100C60004FF6FF03184040EA0220034A1043086091
:100C7000704700000CED00E00000FA051649B0F5E1
:100C8000007F0868C0F3412009D0022805D0086819
:100C900020F4C06040F480600860002070470128A4
:100CA000FBD0086820F4C06040F4007008600B4876
:100CB0003222006850430A4AB0FBF2F0401C00E0C8
:100CC000401E4A69520501D50028F9D148694005FE
:100CD000E3D503207047000000700040640000204E
:100CE00040420F000248006800F4C06070470000F6
:100CF000007000402DE9F84F044600270088E54DBC
:100D00003E46010504F1200B1DD5606E78B1B0F5AB
:100D1000800F11D0B0F5000F04D0B0F5400F22D0F5
:100D200001270FE0E86840F48030E8601BE0002114
:100D3000201D02F00BF803E00021584602F09CF859
:100D4000070010D03E462088C00426D5A06EC0B152
:100D5000B0F1807F1AD0B0F1007F0DD0B0F1407FAC
:100D600019D0012718E0D5F88800616E20F4400002
:100D70000843C5F88800E6E7E86840F48030E8609A
:100D800009E00021201D01F0E1FF03E000215846A9
:100D900002F072F80746F7B13E46206880033AD564
:100DA000A86D4FF00008C00009D4A86D40F0805035
:100DB000A865A86D4FF0010800F080500090DFF8A2
:100DC000D8A2DAF8001041F48071CAF80010FFF7D9
:100DD0000FFD814610E0D5F88800A16E20F040702C
:100DE0000843C5F88800D8E7FFF702FDA0EB09002B
:100DF000022801D9032705E0DAF80000C005F3D581
:100E0000002F7CD04FEA0706B8F1000F03D0A86D81
:100E100020F08050A8652078C00707D0D5F888005A
:100E2000A16B20F003000843C5F8880020788007F4
:100E300007D5D5F88800E16B20F00C000843C5F811
:100E400088002078400707D5D5F88800216C20F06D
:100E500030000843C5F888002078000707D5D5F88A
:100E60008800616C20F0C0000843C5F88800207835
:100E7000C00607D5D5F88800A16C20F4407008435F
:100E8000C5F888002078800607D5D5F88800E16C81
:100E900020F440600843C5F888002088800507D505
:100EA000D5F88800E16D20F440200843C5F888009B
:100EB0002088400507D5D5F88800216E20F4401021
:100EC0000843C5F888002078400607D5D5F8880083
:100ED000216D20F440500843C5F8880020780006B2
:100EE00007D5D5F88800616D20F440400843C5F867
:100EF00088002088C00509D5D5F8880000E01CE0EE
:100F0000A16D20F440300843C5F8880020884FF0D8
:100F1000006780044FF080684FD5D5F88800E16EF7
:100F200020F040600843C5F88800E06EB8423CD12C
:100F3000E86840F48010E8603FE0D5F8900010F4D5
:100F4000407015D0D4F88410814211D0D5F89000AB
:100F5000D5F8901020F4407041F48031C5F890101D
:100F6000D5F8901021F48031C5F89010C5F89000A4
:100F7000C00710D0FFF73CFC074641F2883906E075
:100F8000FFF736FCC11B494501D903263CE7D5F8DC
:100F900090008007F4D5D5F89000D4F8841020F4A0
:100FA00040700843C5F890002EE7404505D1012167
:100FB000201D01F0CBFE00B106462068000317D5C6
:100FC000D5F88800216F20F040600843C5F88800FC
:100FD000206FB84204D1E86840F48010E86007E070
:100FE000404505D10121201D01F0B0FE00B10646AB
:100FF0002068400317D5D5F88800616F20F0406065
:101000000843C5F88800606FB84204D1E86840F42E
:101010008010E86007E0404505D10121201D01F066
:1010200095FE00B10646208840041AD5D5F8880000
:10103000A16F20F040500843C5F88800A06FB0F1C0
:10104000805F03D0B0F1005F05D00AE00221201DCF
:1010500001F07CFE03E00221584601F00DFF00B1D3
:1010600006462088000407D5D5F88800E16F20F0F7
:1010700080400843C5F888002068C00307D555F8AC
:10108000880FD4F8801020F00040084328603046D4
:1010900000F004B8001002400070004018BCBDE829
:1010A000E08F00002DE9F0470F46050058D0404E74
:1010B000306800F00700B84209D2306820F007001D
:1010C00038433060306800F00700B84248D12878D3
:1010D000384CC0072CD06868032811D0022812D0E1
:1010E000216898B1490500293ADAA16821F0030185
:1010F0000143A160FFF77CFB804641F2883910E094
:1011000021688901EFE721688903ECE78907EAE7AD
:10111000FFF76EFBA0EB0801494502D90320BDE8AB
:10112000F087A068696800F00C00B0EB810FEFD188
:101130002878800705D5A068A96820F0F00008434A
:10114000A060306800F00700B8420BD9306820F08A
:10115000070038433060306800F00700B84201D023
:101160000120DCE72878400705D5A068E96820F46D
:10117000E0600843A0602878000706D5A0682969C8
:1011800020F4605040EAC100A06000F05FF8A16860
:10119000094AC1F30311515C01F01F01C84007491E
:1011A000086007480068BDE8F047FFF7D1BC0000C1
:1011B0000020024000100240B03700086400002008
:1011C000040000200F2202600C4A936803F003031E
:1011D0004360936803F0F0038360936803F4E06373
:1011E000C36092684FF4E06303EAD20202610448EC
:1011F000006800F00700086070470000001002401F
:10120000002002400548064900688968054AC1F384
:101210000221515C01F01F01C840704764000020AA
:1012200000100240F0370008054806490068896848
:10123000054AC1F3C221515C01F01F01C84070474B
:101240006400002000100240F037000870B5254906
:10125000002318468A68CC6812F00C0204F00306DA
:10126000214C4FEA640509D00C2A05D0042A32D05B
:10127000082A00D1284670BD012E10D10B681B072B
:1012800004D4D1F89430C3F3032302E00B68C3F312
:101290000313164E56F82330DAB10C2AEBD1C86886
:1012A00000F00300022818D0032818D01846CA6896
:1012B000CB68C2F30212C3F306234343521CB3FBB1
:1012C000F2F2C868C0F34160401C4000B2FBF0F08D
:1012D00070BD184670BD204670BD2046E7E7284621
:1012E000E5E70000001002400024F400C0370008C9
:1012F0002DE9F84304006ED0FD4DA86800F00C06FF
:10130000E86800F003072078C00663D576B10C2E9C
:1013100001D1012F0AD0A0690028286878D040F0B8
:1013200001002860FFF764FA80465BE028688007C8
:1013300002D5A0690028DED0216A2868000703D5FD
:10134000286800F0F00004E0D5F89400F02202EAEA
:101350001010814216D9084601F012FE00283AD139
:10136000286840F0080028602868216A20F0F00012
:10137000084328606868E16920F47F4040EA012062
:10138000686015E0286840F0080028602868216A35
:1013900020F0F000084328606868E16920F47F408D
:1013A00040EA01206860206A01F0EAFD0028D6D1F9
:1013B000FFF74CFFA968CF4AC1F30311515C01F05C
:1013C0001F01C840CC490860CC480068FFF7C0FB4B
:1013D00000287DD12DE0C9E0FFF70AFAA0EB080054
:1013E000022876D828688007F6D5286840F00800DB
:1013F00028602868216A20F0F000084328606868A7
:10140000E16920F47F4040EA0120686011E0FFE7D5
:1014100020F001002860FFF7EBF9804606E000BFEE
:10142000FFF7E6F9A0EB08000228DAD82868800761
:10143000F6D42078C00740D0082E18D00C2E01D149
:10144000032F14D06068B0F5803F17D0B0F5A02FFF
:10145000286817D020F480302860286820F4802085
:1014600028606068E0B1FFF7C3F9804614E028689F
:10147000800322D56068002878D01EE0286840F4F8
:101480008030EDE740F480202860F7E7FFF7B0F9FF
:10149000A0EB08006428A4D828688003F6D50CE0E7
:1014A000FFF7A6F9804605E0FFF7A2F9A0EB0800D8
:1014B000642896D828688003F6D4207880073BD526
:1014C000042E11D00C2E01D1022F0DD0E06801E0C6
:1014D0003EE19FE0002828681ED040F4807028601C
:1014E000FFF786F907460CE0286840050CD5E06850
:1014F0000028C1D008E000BFFFF77AF9C01B02281E
:1015000093D828684005F7D56868217C20F0F8500A
:1015100040EA016068600FE020F480702860FFF707
:1015200067F9074605E000BFFFF762F9C01B022814
:1015300070D828684005F7D42078000729D560695D
:101540000028D5F8940012D040F00100C5F89400AE
:10155000FFF74EF9074604E0FFF74AF9C01B0228DF
:1015600058D8D5F894008007F6D512E029E120F08C
:101570000100C5F89400FFF73BF9074605E000BFFE
:10158000FFF736F9C01B022844D8D5F8940080072D
:10159000F6D42078400768D5A86D0027C00008D48D
:1015A000A86D40F08050A865A86D012700F080501C
:1015B000009053480168C90512D40168814641F47E
:1015C00080710160FFF714F9804605E0FFF710F91C
:1015D000A0EB080002281DD8D9F80000C005F5D5F9
:1015E000A068012817D00528D5F8900018D020F061
:1015F0000100C5F89000D5F8900020F0040000BF6D
:10160000C5F89000A06841F28839D0B1FFF7F0F832
:10161000804611E06BE0D5F8900040F00100EFE764
:1016200040F00400C5F89000F5E700BFFFF7E0F8D0
:10163000A0EB080149455AD8D5F890008007F5D5A8
:101640000EE0FFF7D5F8804606E000BFFFF7D0F8C0
:10165000A0EB080149457AD8D5F890008007F5D469
:101660001FB1A86D20F08050A865A06AF0B30C2EC1
:1016700075D00228286820F08070286004D028687F
:1016800010F0205F51D054E0FFF7B2F8064604E0B6
:10169000FFF7AEF8801B022859D828688001F7D4DC
:1016A000D4E90B016FF00F0202EB01110843A18F87
:1016B0005204490802EB4151626B41EA022108439E
:1016C00094F840104FF07E42490802EB4161084314
:1016D000A16B090940EA4140E9680A4A1140084300
:1016E000E860286840F0807028600DE06BE02EE034
:1016F00000100240B0370008640000200400002001
:10170000007000408C809DF9E86840F08070E860CF
:10171000FFF76EF8044604E0FFF76AF8001B0228A2
:1017200015D828688001F7D54DE0E86820F003005F
:10173000E860E86825490840E860FFF759F8044682
:1017400009E000BFFFF754F8001B022803D903206B
:10175000BDE8F88303E028688001F3D433E0012872
:10176000F6D0E868E26A00F00301914229D1216BCA
:1017700000F0700209011039914222D1626B00F42D
:10178000FE41B1EB022F1CD1A26B00F40031072AFD
:1017900001D0012200E00022914212D1A18F00F479
:1017A000C00249084905A1F50011914209D194F8F8
:1017B000401000F0C06049084906A1F10071814263
:1017C00001D00120C4E70020C2E70000FFFFEEFEC9
:1017D00010B504004FF0010044D094F8210028B95E
:1017E000002084F82000204600F040F8022084F811
:1017F00021002168CA20486221685320486220469F
:1018000001F0FCFB00282DD120688168164A1140A8
:101810008160216888686268A369104322691A435D
:10182000104388602168E0680861206801692289A6
:1018300041EA02410161204601F004FC002811D177
:101840002168CA6C22F00302CA646269E16911432B
:101850002268D36C1943D1642268FF2151620121AF
:1018600084F8211010BD0000BFFF8FFF00680549FC
:10187000884205D1044850F8901F41F400410160AE
:1018800070470000002800400010024070B5044678
:101890000068C16821F0A001C160FEF7A9FF0546FC
:1018A0004FF47A7607E000BFFEF7A2FF401BB0427C
:1018B00001D9032070BD2068C0688006F4D50020DF
:1018C00070BD2DE9F041040005D00025A56294F813
:1018D0005D0018B107E00120BDE8F08184F85C509C
:1018E000204600F045F8022384F85D302068016846
:1018F00021F040010160E0684FF4E066B04201D998
:10190000002101E04FF48051B0F5706F02D0B04279
:1019100000D0A562276B012227B9B04201D9236309
:1019200000E02263D4E901031843D4E904363343C9
:101930001843238B03F400731843E3691843236AA5
:101940001843A36A184323681860636B606AA6692A
:1019500018430427E36807EA16463343184308434D
:1019600021684860256684F85D200020B4E7000007
:1019700070B586B0044614216846FEF776FC2A4E00
:10198000256800212948022203230524B5421CD1E1
:10199000056E45F480550566056E05F48055059580
:1019A000C56C45F00105C564C06C02AD00F00100D6
:1019B000059085E81A00E020CDE9000269464FF065
:1019C0009040FEF72BFE06B070BD194EB542FAD11D
:1019D000856D45F480458565856D05F480450595E3
:1019E000C56C45F00205C564C06C02AD00F0020094
:1019F000059085E81A004FF4C040CDE900020D4D76
:101A000069462846FEF70AFE0122B414CDE90042D9
:101A10000292694628460392FEF700FE0122214603
:101A20002846FEF7E0FECEE70030014000100240FD
:101A300000380040000400487047704770470000BD
:101A400070B590F83C20012A24D0012480F83C4055
:101A5000022280F83D200268536895680E4EB2421B
:101A600002D00E4EB24203D123F470064B683343CA
:101A700023F070060B688968334325F080052943FD
:101A800053600268916080F83D40002180F83C106E
:101A9000084670BD022070BD002C0140003401409A
:101AA00010B5040003D094F83D0010B107E0012008
:101AB00010BD002084F83C00204600F00DF8022004
:101AC00084F83D00211D206801F05AFB012084F8B4
:101AD0003D00002010BD000008B500680B49884299
:101AE00012D10B48816D41F002018165806D0022A9
:101AF00000F00200009011461D20FFF78DF8BDE8B0
:101B000008401D20FFF77AB808BD0000000400401F
:101B1000001002400168CA6842F00102CA60016810
:101B20008868064A1040062806D0B0F5803F03D0EA
:101B3000086840F0010008600020704707000100BD
:101B400070B5044690F83C00012817D0012584F8B0
:101B50003C50022084F83D00226890682E4B1840CB
:101B600020F47F4090600868502830D00DDC202899
:101B70004DD005DC98B310283BD148E0022070BD61
:101B8000302844D0402834D139E0602828D070284B
:101B900006D0B0F5805F2CD0B0F5005F29D10AE007
:101BA000CB68D1E90121206801F04AFB20688168F7
:101BB00041F0770109E0CB68D1E90121206801F00B
:101BC0003FFB2068816841F48041816011E0CA6870
:101BD0004968206801F046FB5021206807E016E0C4
:101BE000CA684968206801F04EFB6021206801F056
:101BF00031FB84F83D50002084F83C0070BDCA6879
:101C00004968206801F02EFB40212068EFE7226838
:101C100001461046EBE7000088FFFEFF704770B5F5
:101C20000446006801694FF00005C943890715D4CF
:101C3000C168C943890711D4E91E016101202077D9
:101C4000206880698007204602D0FFF7E7FF04E0A4
:101C500000F0A7F8204600F0A5F825772068016974
:101C6000C943490717D4C168C943490713D46FF062
:101C700004010161022020772068806910F4407F10
:101C8000204602D0FFF7CAFF04E000F08AF82046A1
:101C900000F088F8257720680169C943090716D440
:101CA000C168C943090712D46FF00801016104201B
:101CB00020772068C0698007204602D0FFF7AEFF7A
:101CC00004E000F06EF8204600F06CF825772068FC
:101CD0000169C943C90617D4C168C943C90613D4E9
:101CE0006FF010010161082020772068C06910F4AE
:101CF000407F204602D0FFF791FF04E000F051F84A
:101D0000204600F04FF8257720680169C943C907CC
:101D100008D1C168C943C90704D1891E01612046A1
:101D200000F041F820680169C943090609D4C16877
:101D3000C943090605D46FF0800101612046FFF711
:101D40007CFE20680169C943C90509D4C168C9433B
:101D5000090605D46FF4807101612046FFF76CFE1F
:101D600020680169C943490609D4C168C9434906C5
:101D700005D46FF040010161204600F016F820689C
:101D80000169C94389060BD4C168C943890607D4D0
:101D90006FF0200101612046BDE87040FFF74EBEA4
:101DA00070BD70477047FEF7BBBE70477047704705
:101DB0002DE9F04102680446D0691168926810F07C
:101DC0000F034FF0000568D0514E336002F001035D
:101DD00001F490761E4376D0C6070AD0CE0508D50A
:101DE000276801263E62D4F8806046F00106C4F8F8
:101DF000806086070AD5D60708D0276802263E628B
:101E0000D4F8806046F00406C4F8806046070AD51E
:101E1000D20708D0266804223262D4F8802042F02B
:101E20000202C4F8802002070CD501F020021A43F8
:101E300008D0236808221A62D4F8802042F00802F1
:101E4000C4F88020D4F88020002A33D0800605D53D
:101E5000880603D5616E09B120468847D4F8800012
:101E600021688968490601D4000726D5204601F07B
:101E7000BEFA20688168490619D5816821F04001C1
:101E80008160206F98B123498163206FFEF7D3FAF8
:101E900000280FD0206F816B06E0830613D58B06D8
:101EA00011D5616E21E02046BDE8F041084720468B
:101EB000FFF77DFFBDE8F08105E02046FFF777FFE3
:101EC000C4F88050F6E7C3020AD5520208D521684B
:101ED0004FF4801008622046BDE8F041FFF766BF6E
:101EE000020605D50A0603D5A16E0029DBD1E1E77C
:101EF0004006DFD54806DDD5216820460A6822F075
:101F000040020A602021A167A56600F005F9D1E72B
:101F100000000020DB33000810B5040002D0A06FE1
:101F200010B107E0012010BD002084F874002046A5
:101F300000F026F82420A0672068016821F0010144
:101F40000160204601F062FA0128ECD0606A10B10D
:101F5000204601F0B1F92068416821F490414160C8
:101F60002068816821F02A0181602068016841F0C1
:101F7000010101602046BDE8104001F001BA0000F7
:101F8000F0B587B0064614216846FEF76EF95A4B45
:101F9000D6F800C00024594902250320584A9C4520
:101FA00021D18B6D43F400238B658B6D03F40023EB
:101FB0000593CB6C43F00403CB64C96CCDE90240BC
:101FC00001F0040105918102CDE90015082004907B
:101FD00069461046FEF722FB002211463420FEF728
:101FE0001BFE342027E0DFF81CE107234FF0904769
:101FF000F44524D10A6E42F480420A660A6E02F465
:1020000080420592CA6C42F00102CA64C96C029413
:1020100001F0010105914FF4C061CDE90015CDE952
:10202000030369463846FEF7F9FA002211462520D7
:10203000FEF7F2FD2520FEF7E1FD07B0F0BDDFF869
:10204000C8E0F44520D18A6D42F400328A658A6D79
:1020500002F400320592CA6C42F00102CA64C96CF3
:10206000029401F0010105910C21CDE90015CDE9A3
:10207000030369463846FEF7D1FA002211462620AE
:10208000FEF7CAFD2620D6E7204FBC45D5D18F6D7F
:1020900047F480278F658F6D07F480270597CF6CF5
:1020A00047F00407CF64C96C029401F00401059164
:1020B0003021CDE90015CDE9030369461046FEF74E
:1020C000ADFA144F12483860C7E901548020C7E9BF
:1020D00003407C61BC61FC6138463C62FEF730FA2B
:1020E00008B1FEF7A7F93767002211462720BE6224
:1020F000FEF792FD27209EE7004C004000100240B2
:1021000000080048003801400044004000480040FA
:10211000300002400C0400207047FEE70148FEF743
:10212000C3BB0000680000200148FEF7F1BB0000BF
:10213000680000200148FEF7B7BB0000B400002093
:102140000148FEF7E5BB0000B400002010B5806A2E
:102150000021826B9163C26B916390F841106029FA
:1021600002D0FEF7DDFB10BD202180F84110FEF704
:1021700099FB10BD10B50022CC074FF0280306D004
:1021800090F84140422233EA040400D0F2228C0746
:1021900007D590F8414042F04402A34301D042F0F9
:1021A000B0024B0701D542F0B80211238B4301D195
:1021B00042F0900212238B4301D142F0600200688A
:1021C00001689143016010BD01688A69D24392079A
:1021D00001D400228A6200688169C943C90703D01B
:1021E000816941F00101816170472DE9F0410446A8
:1021F00090F841002821814320684FF000054FF0FE
:10220000080304D0C36184F84050BDE8F0818169BF
:10221000C1F300478169FE2202EA11468168C1F3D9
:102220000902C168D4F80CC001F0FE01BCF1020F34
:1022300017D14FF0060C06F006060CEAD21C6645D4
:102240000ED1A16C491CA164A16C0229DDD1A56449
:10225000C36184F8405039462046FEF724FBD4E79A
:102260000E4604212046FFF785FF84F84050324691
:10227000F1E7000070B5044690F84100002584F8AD
:102280004250314AE2626585626C0A4362642026EC
:10229000282825D0292823D02A2821D007212046E4
:1022A000FFF768FF94F84100602801D084F841608E
:1022B00025636563206801684A04244902681AD5C9
:1022C00022F480420260A06B002833D0816384F83E
:1022D0004050A06BFEF7AFF800282BD0A06B1CE09D
:1022E00003212046FFF746FF282084F8410025639C
:1022F00017486063DEE7120413D5026822F4004237
:102300000260E06B002815D0816384F84050E06BD8
:10231000FEF791F800280DD0E06B816BBDE87040AE
:10232000084794F84100602805D084F840502046C2
:10233000FEF7F6FA70BD84F8416084F840502046FC
:10234000FEF7B0FA70BD00000000FFFF4D2100084D
:10235000F924000870B504461548E062002525639D
:10236000202084F8410084F84250C8436563400748
:1023700011D42068406A616A0870606A401C60621B
:10238000208D40B1401E2085608D401E6085606CB0
:1023900040F00400606407212046FFF7EBFE21684F
:1023A0001020C86184F840502046FEF717FB70BD2E
:1023B0000000FFFF2DE9F041044600680568202772
:1023C0000E46C76107212046FFF7D4FE206841680A
:1023D00041F40041416020684168304A1140416049
:1023E0002046FFF7F1FEE843410401D4A06B02E070
:1023F000000404D4E06B10B1006840686085F043CD
:1024000040070FD4206826F00406406A616A08700D
:10241000606A401C6062208D20B1401E2085608D66
:10242000401E6085608D18B1606C40F004006064EF
:102430000025256384F842506563606C68B1616C67
:102440002046FFF717FF94F84100282814D13146A1
:102450002046BDE8F041FFF77DBFE06A104EB04274
:102460000CD0204600F01EF8E66284F8417084F833
:1024700040502046FEF7B2FABDE8F08194F84100E2
:1024800084F84170222884F84050204602D0FEF79C
:1024900016FBF1E7FEF712FBEEE7000000E800FE96
:1024A0000000FFFF70B50025044680F8425090F808
:1024B00041102820292911D094F841102A290CD143
:1024C00084F841002220206302212046FFF752FEBB
:1024D00084F840502046FEF7F1FA70BD84F84100C0
:1024E0002120206301212046FFF744FE84F840505C
:1024F0002046FEF7E4FA70BD2DE9F0410446C06ABB
:102500000D4694F8401001291ED0012184F8401096
:10251000E943424B5FEAC16C4FF080776FEA0206F5
:1025200031D4F2062FD4628D102182B12268D1619C
:10253000616C41F00401616408B1B84260D1616C22
:102540002046FFF797FE5BE00220BDE8F08194F89B
:102550004120282A02D1B0F1007F04D094F8412014
:10256000292A05D00CE029462046FFF7F3FE47E074
:10257000984205D02068C1612046FFF725FE3CE067
:102580002068C1613CE04A0717D4720715D4618DF9
:1025900071B1216825F00405496A626A1170616AA7
:1025A000491C6162218D491E2185618D491E61850D
:1025B000618D29BB984220D122E00A0706D4320758
:1025C00004D429462046FFF710FE19E0890717D4E6
:1025D000B10715D4618D69B1606A2168007888629D
:1025E000606A401C6062608D401E6085208D401EC8
:1025F000208505E0B84200D010B92046FFF752FF11
:10260000E843800605D4B00603D429462046FFF7E8
:10261000D1FE002084F8400097E700000000FFFF93
:10262000094808B5816C41F001018164806C002289
:1026300000F00100009011460D20FEF7EDFABDE814
:1026400008400D20FEF7DABA001002402DE9F047ED
:1026500086B014216846FDF708FE5048C16C41F071
:102660001001C164C16C01F010010591C16C41F011
:102670000401C164C16C01F004010591C16C41F019
:102680008001C164C16C01F080010591C16C41F011
:102690000101C164C16C01F001010591C16C41F0FF
:1026A0000201C164C16C01F002010591C16C41F0ED
:1026B0000801C164C06CDFF8E8A000F008000590D4
:1026C000002295215046FEF78EF84FF090470022E9
:1026D00010213846FEF787F8DFF8C88049F2020675
:1026E000002231464046FEF77EF8DFF8BC9000221B
:1026F000C0214846FEF777F8952000900125002478
:10270000CDE90154694650460394FDF787FF102038
:102710000090CDE90154694638460394FDF77EFFE9
:102720000096CDE90154694640460394FDF776FFD3
:102730000420CDE90004694640460294FDF76EFF8F
:102740001A4E4FF4A060CDE900066946029418487D
:10275000FDF764FFC0200090CDE90154694648466A
:102760000394FDF75BFF0220CDE900066946029461
:102770005046FDF753FF002211460720FEF74CFAA2
:102780000720FEF73BFA002211462820FEF744FA04
:102790002820FEF733FA06B0BDE8F08700100240AB
:1027A0000010004800040048000800480000111014
:1027B000000C0048134810B51149016012494160EE
:1027C00000210122C0E90212016141618161C16100
:1027D0000162FEF7A7F808B1FDF72CFE00210948B9
:1027E000FEF70CF808B1FDF725FE00210548FEF7BD
:1027F00030F8002803D0BDE81040FDF71BBE10BD27
:102800000054004068000020EC9C9010134810B564
:10281000114901601249416000210122C0E9021200
:10282000016141618161C1610162FEF77BF808B11C
:10283000FDF700FE00210948FDF7E0FF08B1FDF7B4
:10284000F9FD00210548FEF704F8002803D0BDE893
:102850001040FDF7EFBD10BD00580040B40000204F
:10286000EC9C90100A4810B50849016003214160B2
:1028700040F6FF71C1608160FEF722F9002803D0A5
:10288000BDE81040FDF7D6BD10BD0000003000408F
:10289000000100200C4810B50A49016000217F2288
:1028A000C0E90112FF22C0E9032141618161C161D8
:1028B000FEF78EFF002803D0BDE81040FDF7BABD3B
:1028C00010BD00000028004010010020124810B583
:1028D000104901604FF48271416000214FF4407251
:1028E000C0E902124FF400720161C0E90512C16132
:1028F000016207224162C0E90A12016308214163B3
:10290000FEF7DFFF002803D0BDE81040FDF792BDC1
:1029100010BD00000030014034010020134810B504
:10292000114901604FF4827141604FF48061816010
:102930004FF44071C16000214FF400720161C0E9A1
:102940000512C161016207224162C0E90A120163F6
:1029500008214163FEF7B5FF002803D0BDE8104011
:10296000FDF768BD10BD0000003800409801002050
:1029700010B588B000241748009401940294039481
:102980000494059412490694C0E9001441F66901C3
:10299000C0E90241802104618161FFF781F808B13B
:1029A000FDF748FD4FF48050009069460948FFF755
:1029B000C7F808B1FDF73EFD049404A90548069444
:1029C000FFF73EF8002801D0FDF734FD08B010BD38
:1029D00000040040540400200D4810B50B4901606C
:1029E0004FF4E1314160002181600C22C160C0E9F7
:1029F00004128161C16101624162FFF78DFA002812
:102A000003D0BDE81040FDF715BD10BD004C0040DF
:102A1000FC0100200D4810B50B4901604FF4E13175
:102A20004160002181600C22C160C0E90412816113
:102A3000C16101624162FFF76FFA002803D0BDE86F
:102A40001040FDF7F7BC10BD0038014080020020A7
:102A50000D4810B50B4901604FF4E1314160002190
:102A600081600C22C160C0E904128161C161016210
:102A70004162FFF751FA002803D0BDE81040FDF78E
:102A8000D9BC10BD00440040040300200D4810B51F
:102A90000B4901604FF4E1314160002181600C225B
:102AA000C160C0E904128161C16101624162FFF746
:102AB00033FA002803D0BDE81040FDF7BBBC10BDC1
:102AC0000048004088030020FEE770471A4810B510
:102AD000007801282FD1FDF765FB184A04461178CC
:102AE00029B1491E11F0FF00107022D103E0BDE8AA
:102AF0001040FDF75BBB12480078D0B900F004F934
:102B000010490870104900EB400051F820100F48A0
:102B100001600F48006881420BD051F8900F401CB3
:102B200008600C480168491C01600B494FF0805057
:102B300008602046DBE710BD3D0000203C0000207F
:102B4000540000204B0000209C0500206000002065
:102B50005C0000205800002004ED00E070B515482E
:102B6000006800B18047FDF751FC134C134A2168FF
:102B70001268914207D0D1F89830C31A41F8943FB7
:102B80008D682B448B60C2F89800FDF707FC216824
:102B9000D1F8B420824201D2C1F8B400084AD1F879
:102BA000B8301068834201D2C1F8B800002010602C
:102BB00070BD0000340000205C0000206000002098
:102BC0005000002000B585B000F01CF8FDF71EFC99
:102BD00004AA002103920091CDE90110064807499B
:102BE000002300781A4600EB400001EB8001044806
:102BF00000F028F805B000BD4A0000209C05002028
:102C00005449434B02480068002800D000477047F1
:102C10003800002010B5FDF7C5FA0446FDF7CEFBDD
:102C200007490878401C0870FDF7D8FB2046FDF7DF
:102C3000BDFAFFF7C7FFBDE81040FFF747BF000030
:102C40003C0000202DE9F84F1D46DDE90CB4DDE91C
:102C50000AA916460F468046FDF7A4FA0090FDF734
:102C6000ADFB1D481D4A0188128891422DD2491C96
:102C700089B201801A4802888A4200D2018019492B
:102C80000868C0F80080C0E902760582C0F814A088
:102C9000A0F81890C0F81CB04068086012480121E4
:102CA0000181124901604160002000F03FF81048A6
:102CB000007808B10F49087000202080FDF78EFBD6
:102CC000009800F01BB8FDF771BA0B490888401C4A
:102CD000088044F25360F0E744000020AE3700085B
:102CE00046000020400000209C050020D404002065
:102CF0004A0000204C0000204800002018BCBDE81D
:102D0000E04FFFF7E0BF000010B50024064802E0E6
:102D10002034E4B2001D01680029F9D00846FDF70F
:102D20004CFA2044C0B210BD3000002000F01F0259
:102D300041090120C2F11F029040034A52F821309C
:102D4000034342F821307047300000202DE9F04164
:102D5000444C05468846E0680026810728680DD067
:102D6000E16801F00301814216D1A8B1E068696809
:102D7000C0F30210401C88420ED120E0012804D08C
:102D8000022805D0032807D108E02168890701E05F
:102D900021684905002907DB01265FE021688903D6
:102DA00002D421684903F5E7E1686A686FF00F0310
:102DB00021F0730103EB021211430143E16020682B
:102DC00020F080602060FDF713FD074605E000BF9E
:102DD000FDF70EFDC01B022837D820680001F7D48C
:102DE000B8F1000F18D0B8F1010F1ED0287D4FF0B8
:102DF0007E41400801EB4060A96840EA012021695A
:102E0000194A114008432061206840F0806020602A
:102E1000FDF7EEFC07461AE0A868E9680002090918
:102E200040EA41402169114AEBE7288A10494008ED
:102E300001EB4050A96840EA012021690D4AE0E712
:102E4000FDF7D6FCC01B022801D9032606E0206846
:102E50000001F5D52069A969084320613046BDE825
:102E6000F081000000100240FF80FFF9FF80FDFFAD
:102E70000000E0FFFF809FFF2DE9F0413D4C06463A
:102E80008846E0680025810730680DD0E16801F0D0
:102E90000301814216D1A8B1E0687168C0F3021045
:102EA000401C88420ED120E0012804D0022805D021
:102EB000032807D108E02168890701E02168490556
:102EC000002907DB012551E02168890302D421682C
:102ED0004903F5E7E16872686FF00F0321F07301B1
:102EE00003EB021211430143E160206820F080509F
:102EF0002060FDF77DFC074605E000BFFDF778FC8C
:102F0000C01B022829D820688000F7D4B8F1000F30
:102F100015D0307C4FF07E41400801EB4060B16835
:102F200040EA01206169144A114008436061206849
:102F300040F080502060FDF75BFC07460FE0B06872
:102F4000F1680002090940EA414061690B4AEBE778
:102F5000FDF74EFCC01B022801D9032506E02068BE
:102F60008000F5D560697169084360612846BDE855
:102F7000F081000000100240FF80FFF9FF80FDFF9C
:102F8000F8B51C4D06460024A86DC00002D5FDF71B
:102F9000A9FE0DE0A86D40F08050A865A86D00F076
:102FA00080500090FDF79EFEA96D21F08051A9652B
:102FB000B0F5007F04D0802E07D94FF003040AE05B
:102FC000802E08D9A02E01D804E001D1022402E00D
:102FD000702E00D101240848016821F00701214327
:102FE0000160006800F00700A04201D00120F8BD98
:102FF0000020F8BD00100240002002402DE9F04101
:10300000044600680025C168490617D4691EC160DE
:10301000FDF7EEFB06464FF47A78032708E000BF81
:10302000FDF7E6FB801B404502D9032584F821709B
:103030002068C068400601D4032DF1D12846BDE8C0
:10304000F08100002DE9F041064613480025016893
:1030500021F080010160041F20684FF00307800603
:1030600007D43046FEF712FC90B186F82170032594
:103070000EE0206820F0200020603046FEF706FCBD
:1030800010B186F821700325206840F020002060F0
:103090002846BDE8F08100000C2800407047000081
:1030A00010B5B8B0442122A8FDF7DFF8142133A8E9
:1030B000FDF7DBF888216846FDF7D7F80920229054
:1030C0004FF48030012123902791022003242C907B
:1030D000CDE92D4114212F910721CDE930103290F7
:1030E00022A8FEF705F90F20CDE93304002435941A
:1030F0003694042133A83794FDF7D4FF0F94084881
:10310000109414940E94119415940412009068462F
:103110002194FDF7EFFD2046FDF7B0FD38B010BD5E
:10312000CF0002000D48016841F4700101600C48B5
:10313000016841F001010160002181600268094BD2
:103140001A4002608214C260026822F48022026087
:1031500081610249C00380390860704788ED00E052
:1031600000100240FFFFF6EA0148FEF758BD0000DC
:10317000540400200148FEF752BD000094040020D2
:103180002DE9F0470268264B264D274E274F284C45
:103190004FF0804A984209D0504507D0A84205D048
:1031A000B04203D0B84201D0A04204D122F0700C4A
:1031B0004A6842EA0C02DFF87CC0DFF87C80DFF866
:1031C0007C9098420FD050450DD0A8420BD0B04211
:1031D00009D0B84207D0A04205D0604503D0404591
:1031E00001D0484503D122F44075CA682A434D698D
:1031F00022F080022A4302608A68C2620A68826200
:10320000984207D0A04205D0604503D0404501D088
:10321000484501D10969016301214161BDE8F08799
:10322000002C01400004004000080040000C004059
:10323000003401400040014000440140004801408A
:1032400010B5846842EA032224F47F440A432243EF
:10325000826010BD826822F070020A4342F00701CA
:103260008160704710B5036A046A24F001040462A7
:10327000846924F0F00444EA021423F00A020A43A9
:103280008461026210BD10B5036A23F0100303626B
:103290008369046A23F4704343EA023224F0A003F2
:1032A00043EA01118261016210BD00000148FEF78E
:1032B0007FBD0000FC01002090F82410C90706D053
:1032C00001684A68836A22F400321A434A6090F81F
:1032D0002410890706D501684A68C36A22F480323F
:1032E0001A434A6090F82410490706D501684A68D5
:1032F000036B22F480221A434A6090F824100907D5
:1033000006D501684A68436B22F400421A434A60BA
:1033100090F82410C90606D501688A68836B22F4E8
:1033200080521A438A6090F82410890606D50168F5
:103330008A68C36B22F400521A438A6090F8241002
:10334000490611D501684A68036C22F480121A43B9
:103350004A60016CB1F5801F06D101684A68436C70
:1033600022F4C0021A434A6090F82410090606D5D8
:1033700001684A68806C22F4002202434A60704768
:10338000F8B500260446C0F88060FDF731FA05461E
:10339000206800686FF07E47000708D52B460022A2
:1033A0004FF400112046009700F080F960B92068C2
:1033B000006840070AD52B4600224FF480012046C2
:1033C000009700F073F908B10320F8BD2020A06732
:1033D000E06784F874600020F8BD10B5806A0021B1
:1033E000A0F85A10A0F85210FEF7E1FC10BD0168D9
:1033F0000A6822F490720A6001688A6822F0010269
:103400008A602021C1670021416670472DE9F041A3
:103410000546016880682B69EC6918436B690027D1
:1034200023431843954A0B68954C234003430B6094
:1034300028684168EB6821F44051194341602968CC
:10344000A869914201D02B6A18438B6823F430633A
:1034500003438B608B4B29688B4899420DD1D0F880
:10346000880010F0030006D0012868D0022864D03C
:10347000032851D165E001244FE0844B99420BD1E0
:10348000D0F8880010F00C0055D0042857D0082838
:1034900053D00C2840D154E07D4B99420BD1D0F849
:1034A000880010F0300046D0102848D0202844D0A2
:1034B000302831D145E0774B99420BD1D0F88800C4
:1034C00010F0C00037D0402839D0802835D0C0282F
:1034D00022D136E0704B99420ED1D0F8880010F41A
:1034E000407028D0B0F5807F29D0B0F5007F24D07F
:1034F000B0F5407F10D124E091420DD1D0F8880082
:1035000010F4406017D0B0F5806F18D0B0F5006FA0
:1035100013D0B0F5406F14D01024604B00264FF448
:103520000040914245D174B1022C0FD0042C0FD031
:10353000082C18D10FE00024EFE70224EDE7042463
:10354000EBE70824E9E7FDF75DFE03E0184602E03B
:10355000FDF77CFEA8B36A6802EB4201814202D803
:10356000B0EB023F01D9012775E0DFF834815CB18F
:10357000022C0CD0042C13D0082CF4D150082105B7
:10358000401846F1000105E0FDF73CFE0AE0500856
:103590004449F5E70023FCF72DFEA0F5407156E005
:1035A000FDF754FE6A68010E0302500818187141B5
:1035B000F0E7E9694FF6EF7881422FD1092CD2D29A
:1035C00000E048E0DFE804F00609200523050505D2
:1035D0002600C8E7FDF716FE01E0FDF725FE4100D5
:1035E000D5F8040001EB5001B1FBF0F080B2A0F17E
:1035F00010014145B7D84FF6F0710140C0F34200C9
:1036000001432868C16026E027496868EAE7FDF7BA
:103610001DFEE4E74FF480316868E3E7092CA2D28D
:10362000DFE804F006091E052205050525009AE7D6
:10363000FDF7E8FD01E0FDF7F7FD0146686801EBE5
:10364000500100BFB1FBF0F080B2A0F11001414584
:1036500089D82968C8606E663846AE66BDE8F081D4
:10366000686803EB5001EDE7FDF7F0FDE5E76968F9
:1036700000EB5100B0FBF1F0E6E7000000800040F5
:10368000F369FFEF003801400010024000440040A1
:1036900000480040004C0040005000400024F4006E
:1036A000FFFC0F00000024F40048E8012DE9F04180
:1036B000984617460E460446069D08E0681C06D04C
:1036C000FDF796F8A0EB0800A8420BD855B120688A
:1036D000C06936EA000017D00020B842EED00020C2
:1036E000BDE8F0812068016821F4D0710160206894
:1036F000816821F0010181602020A067E06700203F
:1037000084F874000320EBE70120E6E70148FEF7A8
:103710004FBB0000800200200148FEF749BB0000BB
:10372000040300200148FEF743BB0000880300208B
:10373000FEE70907090E002804DB00F1E02080F80D
:103740000014704700F00F0000F1E02080F8141D15
:10375000704702E008C8121F08C1002AFAD170475A
:103760007047002001E001C1121F002AFBD1704701
:10377000FDF7DEF9FFF794FCFEF768FFFEF750FF58
:10378000FFF718F8FFF742F8FFF7A0F8FFF7C6F8C1
:10379000FFF722F9FFF73EF9FFF75AF9FFF776F93D
:1037A000FFF760F8FFF776F8FFF7E2F8FEE70A00A8
:1037B00000000000000000000102030406070809E1
:1037C000A0860100400D0300801A060000350C00A1
:1037D00040420F0080841E0000093D0000127A0064
:1037E0000024F40000366E010048E801006CDC02A1
:1037F0000000000001020304183800080000002047
:103800006800000052370008803800086800002077
:10381000B816000062370008000000001000000029
:103820000100000000000000000000000000000097
:103830000000000000000000000000000000000088
:103840000000000000000000000000000000000078
:103850000000000000000000000000000000000068
:103860000000000000000000000000000000000058
:1038700000000000000000000000000000093D0002
:040000050800018965
:00000001FF
